:020000040800F2
:10000000D01A002045010008B7040008AF0400081A
:10001000B3040008B10100084B17000800000000FD
:10002000000000000000000000000000FF070008C2
:100030007502000800000000A50600086509000818
:100040005F0100085F0100085F010008FD0700086C
:100050005F0100085F0100087702000889020008BC
:100060009B020008AD0200085F0100085F01000864
:100070005F0100085F0100085F0100085F010008E0
:100080005F0100085F0100085F0100085F010008D0
:100090005F0100085F0100085F010008BF0200085F
:1000A0005F010008C90900085F0100085F0100083E
:1000B000E50900081D0A0008950A00085F0100080C
:1000C0005F0100085F0100085F0100085F01000890
:1000D0005F0100087D10000805140008A514000841
:1000E0005F0100085F0100085F0100085F01000870
:1000F0005F0100085F0100085F0100085F01000860
:100100005F0100085F0100081D0E00085F01000884
:10011000E10F0008E30F0008390E00085F01000836
:100120005F0100085F0100085F0100085F0100082F
:10013000DFF80CD000F02AF8004800476D170008DF
:10014000D01A00200648804706480047FEE7FEE731
:10015000FEE7FEE7FEE7FEE7FEE7FEE7FEE7FEE777
:100160006909000831010008D2B201E000F8012B52
:10017000491EFBD270470022F6E710B513460A4627
:1001800004461946FFF7F0FF204610BD064C074D08
:1001900006E0E06840F0010394E807009847103457
:1001A000AC42F6D3FFF7C8FF84170008A417000875
:1001B00000BFFEE702460120704700001CB504A105
:1001C00003C9CDE900010521684600F019FB1CBDFB
:1001D00056003601030000001CB504A103C9CDE997
:1001E00000010521684600F00BFB1CBD56003401E0
:1001F000000000007FB504460D4616460CA30FCB49
:100200008DE80F006019B04200DD351B200A8DF823
:100210000800E0B28DF80900280A8DF80C00E8B259
:100220008DF80D001021684600F0EAFA7FBD00004D
:100230005600320C000A000058580000595900FFBF
:1002400008B504A0006800900421684600F0D8FAC0
:1002500008BD0000560026001CB504A103C9CDE965
:1002600000010521684600F0CBFA1CBD560036019E
:1002700000000000704710B5012000F027F810B111
:100280000F2000F01DF810BD10B5022000F01EF880
:1002900010B10F2000F014F810BD10B5042000F0CC
:1002A00015F810B10F2000F00BF810BD10B50820A4
:1002B00000F00CF810B10F2000F002F810BD7047EC
:1002C0000149086070470000140401400146002005
:1002D0000022074B1B6803EA0102054B14331B681D
:1002E0000B4202D00AB1012000E00020704700005C
:1002F000000401402DE9F0410246002500260020BF
:1003000000230024002791F803C00CF00F0591F89A
:1003100003C01CF0100F03D091F802C04CEA050591
:1003200091F800C0BCF1000F31D0146800202BE020
:100330004FF0010C0CFA00F3B1F800C00CEA030610
:100340009E4220D183004FF00F0C0CFA03F7BC4300
:1003500005FA03FC4CEA040491F803C0BCF1280F31
:1003600006D14FF0010C0CFA00FCC2F814C00AE0F0
:1003700091F803C0BCF1480F05D14FF0010C0CFA05
:1003800000FCC2F810C0401C0828D1D31460B1F89A
:1003900000C0BCF1FF0F34DD546800202EE000F1F6
:1003A000080C4FF0010808FA0CF3B1F800C00CEA91
:1003B00003069E4221D183004FF00F0C0CFA03F785
:1003C000BC4305FA03FC4CEA040491F803C0BCF1F9
:1003D000280F05D100F1080C08FA0CF8C2F81480B7
:1003E00091F803C0BCF1480F07D100F1080C4FF0A1
:1003F000010808FA0CF8C2F81080401C0828CED377
:100400005460BDE8F0810000F0B50A4600230024E6
:1004100000210025174E7168C0F3034583B200F434
:100420004016B6F5401F08D121F07061114E766874
:1004300026F070660F4F7E6012E000F48016B6F56D
:10044000801F06D1032606FA05F4A14341F070612E
:1004500006E0460D360103FA06F6B14341F070613D
:1004600022B1460D360103FA06F63143014E7160A2
:10047000F0BD000000000140F0B50446059D0020DD
:1004800053261E7054265E703A269E700E0ADE7049
:100490001971160A5E719A7100BF03E0275CC61DD0
:1004A0009F55401C8842F9DBC61D2E60F0BD00BF81
:1004B000FEE700BFFEE7704708B54FF4A06000F00C
:1004C000E7F819208DF8000000208DF801000220C7
:1004D0008DF8020001208DF80300684600F09EF8B8
:1004E0001D208DF8000001208DF8010000208DF8FE
:1004F000020001208DF80300684600F08FF81E20EE
:100500008DF8000002208DF801008DF80200012016
:100510008DF80300684600F081F81C208DF800007B
:1005200000208DF8010001208DF802008DF80300F5
:10053000684600F073F832208DF8000000208DF836
:10054000010001208DF802008DF80300684600F0DC
:1005500065F836208DF8000000208DF8010002209B
:100560008DF8020001208DF80300684600F056F86F
:1005700025208DF8000001208DF8010000208DF865
:10058000020001208DF80300684600F047F827209C
:100590008DF8000000208DF801008DF80200012088
:1005A0008DF80300684600F039F806208DF8000049
:1005B00000208DF801008DF8020001208DF8030065
:1005C000684600F02BF807208DF8000000208DF819
:1005D00001008DF8020001208DF80300684600F04C
:1005E0001DF808208DF8000000208DF801008DF81E
:1005F000020001208DF80300684600F00FF8092082
:100600008DF8000000208DF801008DF80200012017
:100610008DF80300684600F001F808BD70B50021B0
:1006200000230F22C4780CB3164C246804F4E06451
:10063000C4F5E064210AC1F10403CA40447804FA15
:1006400003F184781440214309010F4C0678A15529
:10065000047804F01F050124AC4005786D114FF0BB
:10066000E02606EB8505C5F8004109E0047804F0B2
:100670001F050124AC40054D0678761145F826404B
:1006800070BD00000CED00E000E400E080E100E05F
:1006900002490143024A1160704700000000FA0558
:1006A0000CED00E07047000029B1064AD269024310
:1006B000044BDA6104E0034AD2698243014BDA61F8
:1006C000704700000010024029B1064A1269024337
:1006D000044B1A6104E0034A12698243014B1A6118
:1006E000704700000010024029B1064A9269024397
:1006F000044B9A6104E0034A92698243014B9A6178
:10070000704700000010024029B1064AD268024337
:10071000044BDA6004E0034AD2688243014BDA609A
:10072000704700000010024030B500210022002474
:1007300000232D4D6D6805F00C0121B1042905D071
:10074000082923D105E0294D056022E0274D0560E9
:100750001FE0254D6D6805F47012234D6D6805F49A
:100760008034022505EB92421CB9214D55430560AA
:100770000BE01D4D6D6815F4003F03D01C4D554333
:10078000056002E0194D5543056002E0174D056014
:1007900000BF00BF144D6D6805F0F0010909154D4B
:1007A0006B5C0568DD4045600F4D6D6805F4E061E8
:1007B000090A104D6B5C4568DD4085600A4D6D6827
:1007C00005F46051C90A0B4D6B5C4568DD40C5609E
:1007D000054D6D6805F44041890B074D6B5CC5689C
:1007E000B5FBF3F5056130BD0010024000127A0040
:1007F00000093D0062000020720000207047704731
:1008000070B505460C46E1B2284600F009F870BD07
:1008100070B504460D462946204600F019F870BD13
:1008200070B504460D4600260DE02178074800F01B
:1008300088FF641C00BF4021044800F0D0FE00285F
:10084000F9D0701CC6B2AE42EFDB70BD003801407B
:1008500070B504460D4600260CE02178074800F0EC
:1008600070FF641C00BF4021044800F0B8FE00285F
:10087000F9D0761CAE42F0DB70BD000000480040AD
:1008800010B500F001F810BD0CB5002001900090EB
:100890003248006840F480303049086000BF2F487B
:1008A000006800F4003000900198401C019000980E
:1008B00018B90198B0F5A06FF1D12848006810F47C
:1008C000003F02D00120009001E00020009000983D
:1008D000012842D12248006840F0100020490860F9
:1008E0000846006820F0030008600846006840F0F1
:1008F0000200086019484068184948600846406886
:1009000048600846406840F4806048600846406897
:1009100020F47C1048600846406840F4E8104860C5
:100920000846006840F08070086000BF0B4800680F
:1009300010F0007FFAD00948406820F00300074912
:1009400048600846406840F00200486000BF034825
:10095000406800F00C000828F9D10CBD00100240DE
:10096000002002407047000010B51348006840F0B6
:1009700001001149086008464068104908400E49C6
:100980004860084600680E4908400B490860084660
:10099000006820F4802008600846406820F4FE00CB
:1009A00048604FF41F008860FFF76AFF4FF0006057
:1009B0000449086010BD0000001002400000FFF86C
:1009C000FFFFF6FE08ED00E010B50121044800F03D
:1009D000CFFA012803D10121014800F04AFA10BDE5
:1009E000002C014010B50121880700F0C1FA40B188
:1009F0000121880700F03DFA07480068401C0649BD
:100A000008604021080600F0B3FA18B1402108063A
:100A100000F02FFA10BD00005400002010B5012195
:100A2000044800F0A5FA012803D10121014800F093
:100A300020FA10BD000400400EB501210420FFF78C
:100A400033FE134800F024FA42F20F70ADF80400B0
:100A500040F2CF20ADF800000020ADF80600ADF860
:100A6000020069460A4800F09DFA0121084800F09A
:100A7000F1F90121064800F0F9F901221146044874
:100A800000F087FA0121024800F0F6F90EBD0000DF
:100A9000000800401CB50121C94800F069FA01288E
:100AA0007AD10121C64800F0E4F9C6480068072859
:100AB00013D2DFE800F01204134272A1D000C24842
:100AC0000068401CC049086008460068192804DB1B
:100AD000002008600220BB4908606EE1BB48006846
:100AE000F0B9B9480068401CB7490860084600687A
:100AF0000A2190FBF1F201FB1200012802D1FFF75D
:100B00009FFB19E0B0480068642815D10020AE4969
:100B100008600120AB4908600020AC4908600BE088
:100B2000AA48006840B10020A74908600320A549F1
:100B300008600020A54908603FE1A5480068F0B9B9
:100B4000A1480068401CA0490860084600680A21C6
:100B500090FBF1F201FB1200012802D1FFF72EFBFE
:100B600019E099480068642815D10020964908606A
:100B70000120944908600020954908600BE09448E2
:100B8000006840B100209049086004208D49086049
:100B900000208F49086010E110E18E480068F0B92C
:100BA00089480068401C884908600846006814218C
:100BB00090FBF1F201FB1200012802D1FFF74CFB80
:100BC00019E081480068642815D100207E4908603A
:100BD00001207C49086000207E4908600BE07D48C8
:100BE000006840B100207849086005207549086018
:100BF000002078490860E0E077480068F0B9724862
:100C00000068401C70490860084600680A2190FB93
:100C1000F1F201FB1200012802D1FFF7DDFA19E021
:100C200069480068642815D10020674908600120E0
:100C3000644908600020684908600BE06648006865
:100C400040B100206049086006205E49086000202D
:100C500061490860B1E061480068614909688842FB
:100C600018DB604801680068401C5E4A10600A207A
:100C700091FBF0F200FB121020B906215AA0FFF7F9
:100C8000E7FD07E057480068B0F5967F02DB0120DA
:100C9000574908605648006828B301204949086050
:100CA0005449086000205449086054490860544978
:100CB00008604F4908605349086053490860484933
:100CC0000860464908604FF480615048FFF753FAC6
:100CD0004FF480614E48FFF74EFA00204D490860FE
:100CE0004D49086069E04348006848B346480168D8
:100CF0000068401C444A10600A2091FBF0F200FB9F
:100D0000121040B936484FF48071026833480068C9
:100D1000FFF770FA50E03948006880B300203A4984
:100D20000860364908603B4801683848FFF742FAD6
:100D300028B300202F49086001202F4908603BE0BC
:100D40002D480068D8B12F4801680068401C2D4A22
:100D50001060142091FBF0F200FB121080B900200B
:100D6000019001A82A4B00901C480268294801689C
:100D70002648FFF781FB26480199FFF749FD1BE054
:100D80001F480068C0B100201B49086001201949B4
:100D9000086000201A4908601048006800F580705B
:100DA0000E490860084600680D490968884203DB5F
:100DB00006210DA0FFF74CFD00BF00BF1CBD0000C9
:100DC00000080040080000200C0000201000002057
:100DD00014000020180000201C0000204800002003
:100DE000440000205800002053543A454E4400006F
:100DF00038000020280000202C00002030000020B7
:100E0000340000203C00002040000020780000203A
:100E1000780400204C0000205000002010B5012173
:100E2000044800F0A5F8012803D10121014800F091
:100E300020F810BD000C004010B50121044800F05E
:100E400097F8012803D10121014800F012F810BDE4
:100E50000010004021B1028842F08002028004E0CC
:100E6000028840F27F331A4002807047CA430282F0
:100E70007047CA430282704721B1028842F00102E2
:100E8000028004E0028840F2FE331A40028070477C
:100E900010B504462F48844208D10121C014FFF741
:100EA00033FC0021E014FFF72FFC52E0B4F1804F37
:100EB00008D101210846FFF707FC00210120FFF7B8
:100EC00003FC46E02448844208D101210220FFF7B8
:100ED000FBFB00210220FFF7F7FB3AE01F488442AA
:100EE00008D101210420FFF7EFFB00210420FFF7C8
:100EF000EBFB2EE01A48844208D101210820FFF7BD
:100F0000E3FB00210820FFF7DFFB22E015488442C5
:100F100008D101211020FFF7D7FB00211020FFF797
:100F2000D3FB16E01048844208D101212020FFF7AE
:100F3000CBFB00212020FFF7C7FB0AE00B488442CF
:100F400007D101214014FFF7DFFB00216014FFF7F8
:100F5000DBFB10BD002C01400004004000080040F5
:100F6000000C00400010004000140040003401401C
:100F700030B50246002000230024158A05EA01034B
:100F8000958905EA010413B10CB1012000E00020AD
:100F900030BD1AB183890B43838102E083898B437F
:100FA00083817047028802F08F020280CA884B88D2
:100FB0001A4303881A4302808A8882850A88028538
:100FC000054A904202D0054A904201D10A7A02862F
:100FD0000122828270470000002C01400034014051
:100FE000704770471FB500F025F801218803FFF70F
:100FF0007BFB4FF4164000900020ADF80400ADF8E4
:101000000600ADF808000C20ADF80A000020ADF88D
:101010000C006946064800F03FFB0121044800F03F
:10102000D2FA012240F22551014800F00FFB1FBD0A
:101030000038014008B501210420FFF755FB0320CB
:101040008DF802004FF40070ADF8000018208DF804
:10105000030069460848FFF74DF903208DF80200A8
:101060004FF48060ADF8000004208DF8030069465D
:101070000148FFF73FF908BD0008014070B50024A2
:1010800040F22551D34800F0B7FA28B90821D148D9
:1010900000F0A5FA00287DD040F22551CD4800F09F
:1010A00083FA0821CB4800F07FFACA4800F044FBDD
:1010B000C4B2C9480068072805D2DFE800F004047C
:1010C000054084C6FD0083E1762C0BD10020C34986
:1010D0000860084601680068401CC04A1060C048AB
:1010E00044542BE0BD480068042827DABB48016857
:1010F0000068401CB94A1060B94844541046006862
:1011000004281BDBB6480078762814D1B448407810
:1011100088B9B348807826280DD1B148C07850B935
:101120000120B04908604FF4FA71AD48FFF723F889
:101130000020AA4908600020A849086048E1762CF0
:101140000BD10020A5490860084601680068401CD2
:10115000A24A1060A248445434E0A0480068052820
:1011600030DA9F48007876282CD19C4801680068C6
:10117000401C9A4A10609A4844541046006805285A
:1011800020D197480078762819D195484078B0B991
:10119000934800E01DE18078362810D19048C0784F
:1011A00068B98F48007950B901208F4908604FF421
:1011B000FA718B48FEF7DFFF0020884908600020A5
:1011C0008649086004E1762C0BD100208349086031
:1011D000084601680068401C804A106080484454FA
:1011E00032E07E48006805282EDA7D4800787628AF
:1011F0002AD17A4801680068401C784A1060784813
:1012000044541046006805281EDB7548007876288F
:1012100017D173484078A0B971488078362810D12A
:101220006F48C07868B96E48007950B901206F499D
:1012300008604FF4FA716A48FEF79DFF0020674985
:101240000860002065490860C2E0762C0BD10020C0
:1012500062490860084601680068401C5F4A1060E7
:101260005F4844543DE05D480068092839DA5C482D
:101270000078762835D1594801680068401C574AE3
:1012800010605748445410460068092829DB544828
:101290000078762822D152484078F8B950488078B2
:1012A00034281BD14E48C078C0B94D480079042875
:1012B00014D101204E4900E014E008604848007A4B
:1012C0004749C97900EB01204A4908604FF4FA7197
:1012D0004348FEF750FF00204049086000203F4986
:1012E000086075E03D4801680068401C3B4A10609A
:1012F0003B48445410460068012805D1762C03D0A1
:1013000000201146086063E034480068052814D1C5
:101310003348007876280CD13148407848B93048B5
:101320008078322805D12E48C07810B92C48007931
:1013300018B10020294908604AE0284800680528BB
:1013400038DD26480068401E2549085C90BB2348CC
:101350000068801E085C68BB20480068C01E085CEE
:10136000322827D11D480068001F085C10BB1B48AD
:101370000068401F085C76281CD10025052505E083
:101380001748415D681F1C4A11546D1C13480068C2
:10139000401FA842F4DC681F184908600120184962
:1013A000086000200D4908604FF4FA710C48FEF700
:1013B000E2FE00BF09480068B0F5F97F07DD0020B4
:1013C000064908604FF4FA710548FEF7D4FE00BFE5
:1013D00000BF70BD00380140080000205C00002004
:1013E00078080020100000201400002018000020C1
:1013F0001C00002044000020780000204C00002049
:10140000300000207047000000B585B00121212088
:10141000FFF76AF901218804FFF746F903208DF8E8
:1014200002004FF48070ADF8000018208DF8030022
:1014300069461948FEF75EFF4FF40070ADF80000F2
:1014400004208DF8030069461348FEF753FF01217D
:101450001248FEF7D9FF4FF4164001900020ADF876
:101460000800ADF80A00ADF80C000C20ADF80E0035
:101470000020ADF8100001A9094800F00DF9012184
:10148000074800F0A0F8012240F22551044800F07E
:10149000DDF805B000BD000000140140300014006C
:1014A0000048004070B5002440F22551364800F055
:1014B000A3F828B90821344800F091F8002861D039
:1014C00040F22551304800F06FF808212E4800F016
:1014D0006BF82D4800F030F9C4B22C480178007840
:1014E000401C2A4A10702A48445400784F2807D0DC
:1014F00064212748FEF73FFE00202449087041E0A0
:101500002248007807280BDD224880790A2807D076
:1015100064211F48FEF72FFE00201C49087031E0AF
:101520001A48007807282DD10A2C2BD1002500203D
:1015300016490870184800681849096888420FDB86
:101540001348C07845280BD1114800794E2807D19F
:101550000F484079442803D101201149086070BD2B
:101560000B4800790A49C97800EB01250A48006850
:10157000854206D101200B49086064210448FEF72A
:10158000FAFD00BF00BFEAE700480040600000200D
:101590006C0A002078080020480000204400002049
:1015A000380000203400002010B500220023A1F5EF
:1015B00010646A3C00D100BF0A1201249440A3B217
:1015C000DC43048010BD21B1828942F40052828143
:1015D00004E082894DF6FF731A408281704702460B
:1015E0000020B1F5007F00D100BF13880B4201D06D
:1015F000012000E00020704770B50246002400235F
:1016000000250020A1F510666A3E00D100BFC1F39D
:10161000421501F01F03012606FA03F3012D02D142
:101620009689334006E0022D02D1168A334001E04C
:10163000968A33400C12012606FA04F416883440C8
:1016400013B10CB1012000E0002070BDF0B50346DD
:101650000024002600250020A1F510676A3F00D174
:1016600000BF1846C1F3421401F01F06012707FA14
:1016700006F5012C01D10C3004E0022C01D1103010
:1016800000E014301AB107682F43076002E00768D2
:10169000AF430760F0BD00002DE9F04786B0054676
:1016A0000E460024A24600BF00BF0027B08900B14B
:1016B00000BF2F462C8A4CF6FF700440F08804438C
:1016C0002C82AC894EF6F3100440B088318908436F
:1016D000718908430443AC81AC8A4FF6FF40044053
:1016E000B0890443AC8201A8FFF71EF81148874275
:1016F00002D1DDF810A001E0DDF80CA00AEBCA0071
:1017000000EB0A1031688900B0FBF1F86420B8FBE7
:10171000F0F004012009642101FB1089322000EB64
:101720000910B0FBF1F000F00F0004432C8106B06B
:10173000BDE8F0870038014001468888C0F3080002
:101740007047C1F308028280704700BFFEE702E0E5
:1017500008C8121F08C1002AFAD17047704700203C
:1017600001E001C1121F002AFBD17047FFF7FCF80E
:10177000FEF7A2FEFFF736FCFFF746FEFFF75CF927
:1017800000BFFEE7A417000800000020780000005A
:101790004E1700081C18000878000020581A000096
:1017A0005E170008010101010100000001000000B6
:1017B0000000000000000000000000000000000029
:1017C0000000000000000000000000000100000018
:1017D0000000000000000000000000000000000009
:1017E00000000000000000000000000000000000F9
:1017F00000000000000000000000000000000000E9
:1018000000000000000000000000010203040102CB
:0C18100003040607080902040608000093
:0400000508000131BD
:00000001FF
